:020000040800F2
:10000000D8530020E10100083D0B00081D0A00083C
:10001000390B00088D02000867200008000000006E
:10002000000000000000000000000000490100087E
:1000300001090008000000008D010008F91C0008FB
:10004000FB010008FB010008FB010008FB010008A0
:10005000FB010008FB010008FB010008FB01000890
:10006000FB010008FB010008FB010008FB01000880
:10007000FB010008FB010008FB010008FB01000870
:10008000FB010008FB010008FB010008FB01000860
:10009000FB010008FB010008FB010008FB01000850
:1000A000FB010008FB010008FB010008FB01000840
:1000B000FB010008FB010008FB010008FB01000830
:1000C000FB010008FB010008FB010008FB01000820
:1000D000FB010008A51D0008FB010008FB0100084A
:1000E000FB010008FB010008FB010008FB01000800
:1000F000FB010008FB010008FB010008FB010008F0
:10010000FB010008FB010008FB010008FB010008DF
:10011000FB010008FB010008FB010008FB010008CF
:10012000FB010008FB010008FB010008FB010008BF
:10013000DFF810D000F098F8004800475D2800086C
:10014000AFF30080D8530020224B19680868B0E84C
:10015000F00F80F30988BFF36F8F4FF0000080F33A
:1001600011884EF00D0E7047000000000648006830
:10017000006880F3088862B661B6BFF34F8FBFF3A3
:100180006F8F00DF00BF00BF08ED00E0EFF30980D4
:10019000BFF36F8F0F4B1A6820E9F00F106008B59E
:1001A0004FF0BF0080F31188BFF34F8FBFF36F8F05
:1001B00003F0A8F84FF0000080F31188BDE8084074
:1001C00019680868B0E8F00F80F30988BFF36F8FF3
:1001D000704700BF2C000020EFF30580704700003F
:1001E0000648804706480047FEE7FEE7FEE7FEE7D1
:1001F000FEE7FEE7FEE7FEE7FEE7FEE7451D000837
:100200003101000840EA01039B0703D009E008C957
:10021000121F08C0042AFAD203E011F8013B00F8CB
:10022000013B521EF9D27047D2B201E000F8012B17
:10023000491EFBD270470022F6E710B513460A4666
:1002400004461946FFF7F0FF204610BD30B50446BE
:100250000020034600E05B1C934203D2E05CCD5CCF
:10026000401BF8D030BD0000064C074D06E0E068AA
:1002700040F0010394E8070098471034AC42F6D3ED
:10028000FFF75AFF5C3800087C38000800BFFEE723
:1002900010B50021837A012202FA03F13D4A126867
:1002A00042F001023B4B1A603A4A1C3212688A4300
:1002B000384B1C331A60027BCAB9364A0C321268BA
:1002C0008A43344B0C331A604288C38842EA0343A2
:1002D000304A4032847A42F834300288838842EAD5
:1002E00003432C4A4032847A02EBC4025360027BFF
:1002F000012A19D1274A0C3212680A43254B0C33C4
:100300001A604288038842EA0343224A4032847AD0
:1003100042F83430C288838842EA03431D4A40329F
:10032000847A02EBC4025360C27A3AB9194A121DA8
:1003300012688A43174B1B1D1A6006E0154A121DEE
:1003400012680A43134B1B1D1A60028932B9114A05
:10035000143212688A430F4B14331A600289012A3F
:1003600006D10C4A143212680A430A4B14331A603D
:10037000427B012A06D1074A1C3212680A43054B08
:100380001C331A60034A126822F00102014B1A6002
:1003900010BD00000066004030B50246002000237A
:1003A000146824F002041460146844F0010414601A
:1003B00000E05B1C546804F001041CB94FF6FF74A4
:1003C000A342F6D1546804F001040CB900206CE09B
:1003D0008C79012C04D1146844F08004146003E08B
:1003E000146824F080041460CC79012C04D11468C2
:1003F00044F04004146003E0146824F040041460E6
:100400000C7A012C04D1146844F02004146003E039
:10041000146824F0200414604C7A012C04D1146870
:1004200044F01004146003E0146824F01004146015
:100430008C7A012C04D1146844F00804146003E0A1
:10044000146824F008041460CC7A012C04D11468D8
:1004500044F00404146003E0146824F004041460FD
:100460008C78A407CD7844EA05640D7944EA054404
:100470004D7944EA05540D886D1E2C43D4611468EF
:1004800024F001041460002300E05B1C546804F0B5
:1004900001041CB14FF6FF74A342F6D1546804F076
:1004A00001040CB1002000E0012030BD0246002014
:1004B00019B9D36803F0030006E0012903D11369D9
:1004C00003F0030000E00020704700002DE9F04138
:1004D00088B004460D4616461F46DDF838800121D7
:1004E000480600F06FFB0121042000F07BFB4FF475
:1004F0000060ADF81C0048208DF81F0007A92548B2
:1005000000F0FFF94FF48050ADF81C0018208DF872
:100510001F0003208DF81E0007A91E4800F0F1F906
:1005200000208DF816008DF817008DF818000120B6
:100530008DF8190000208DF81A008DF81B008DF839
:1005400012808DF813408DF814608DF81550ADF8B9
:10055000107004A91048FFF71FFF00208DF80A0053
:100560008DF80B0001208DF80C000020ADF8000084
:10057000ADF80200ADF80400ADF80600ADF80800D3
:1005800001208DF80D006846FFF782FE08B0BDE837
:10059000F0810000000801400064004010B500F543
:1005A000D87303EB01131B6803F004031372137A6F
:1005B00053B900F5D87303EB01131B6840F2FF74C5
:1005C00004EA5353136009E000F5D87303EB0113F9
:1005D0001B686FF0604404EAD303536000F5D873DE
:1005E00003EB01131B6803F00203537200F5D87389
:1005F00003EB01135B6803F00F03937200F5D873EC
:1006000003EB01135B681B0AD37400F5D87303EB8B
:1006100001139B68D37200F5D87303EB01139B6839
:100620001C0A147300F5D87303EB01139B681C0CB0
:10063000547300F5D87303EB01139B681B0E93737F
:1006400000F5D87303EB0113DB68D37300F5D8739F
:1006500003EB0113DB681C0A147400F5D87303EB79
:100660000113DB681C0C547400F5D87303EB011301
:10067000DB681B0E937421B9C36843F02003C36089
:1006800003E0036943F02003036110BD30B585B07A
:10069000054600210C48FFF709FF10B9002005B0FE
:1006A00030BD6A4600210848FFF778FF002404E0C7
:1006B0000DF10B00005D2855641C9DF80A00A04256
:1006C000F6D89DF80A00EAE700640040F0B585B06E
:1006D00007460D46002412200090019000208DF85E
:1006E00008008DF809008DF80A5000BF05E0395D5B
:1006F0000DF10B000155601C84B2AC42F7DB69467A
:100700000C4800F019F80646002401E0601C84B291
:100710003146084800F0A4F818B940F6FF7084424A
:10072000F4DB40F6FF70844202DB012005B0F0BD2F
:100730000020FBE70064004010B5024600209368EB
:1007400003F08063B3F1806F00D110E0936803F091
:100750000063B3F1006F01D1012008E0936803F05A
:100760008053B3F1805F01D1022000E0042004280F
:1007700074D002F5C07303EB00131B6803F001048F
:1007800002F5C07303EB00131C600B7A7BB94B7A44
:100790000C8843EA445302F5C07404EB0014246847
:1007A000234302F5C07404EB0014236010E00B7ABD
:1007B0004C6843EAC4034C7A234302F5C07404EB4B
:1007C00000142468234302F5C07404EB0014236072
:1007D0008B7A03F00F038B7202F5C07303EB0013E7
:1007E0005B6823F00F0402F5C07303EB00135C6039
:1007F00002F5C07303EB00135B688C7A234302F5A8
:10080000C07404EB001463608B7B1C064B7B44EAD2
:1008100003440B7B44EA0323CC7A234302F5C074E0
:1008200004EB0014A3608B7C1C064B7C44EA03445D
:100830000B7C44EA0323CC7B234302F5C07404EB16
:100840000014E36002F5C07303EB00131B6843F070
:10085000010402F5C07303EB00131C6010BD00001F
:1008600010B50246002321B1012907D002290FD17A
:1008700009E090681D4C00EA04030BE090681C4CF2
:1008800000EA040306E090681A4C00EA040301E061
:10089000002300BF00BF184C181BA34216D007DC72
:1008A00083B16FF08060184470B1022818D111E054
:1008B000B0F5007F10D0114C204448B1B0F5003F96
:1008C0000ED10BE002230DE000230BE0002309E032
:1008D000002307E0012305E0012303E0012301E0F9
:1008E000002300BF00BFD8B210BD00000300000409
:1008F0000003000800000310000100080001FFF7DA
:1009000070472DE9F0410246002500260020002313
:100910000024002791F803C00CF00F0591F803C0E4
:100920000CF0100CBCF1000F03D091F802C04CEA9F
:10093000050591F800C0BCF1000F31D0146800200B
:100940002BE04FF0010C0CFA00F3B1F800C00CEAF8
:1009500003069E4220D183004FF00F0C0CFA03F7E0
:10096000BC4305FA03FC4CEA040491F803C0BCF153
:10097000280F06D14FF0010C0CFA00FCC2F814C08D
:100980000AE091F803C0BCF1480F05D14FF0010C0B
:100990000CFA00FCC2F810C0401C0828D1D3146027
:1009A000B1F800C0BCF1FF0F34DD546800202EE028
:1009B00000F1080C4FF0010808FA0CF3B1F800C080
:1009C0000CEA03069E4221D183004FF00F0C0CFA73
:1009D00003F7BC4305FA03FC4CEA040491F803C096
:1009E000BCF1280F05D100F1080C08FA0CF8C2F888
:1009F000148091F803C0BCF1480F07D100F1080C36
:100A00004FF0010808FA0CF8C2F81080401C0828C2
:100A1000CED35460BDE8F0810161704700BFFEE7AE
:100A200008B50121442000F0DDF80120ADF80000F8
:100A300028208DF8030003208DF80200694608483D
:100A4000FFF75FFF1C20ADF8000048208DF8030081
:100A500003208DF8020069460248FFF752FF08BDE7
:100A6000000801400018014010B5044622480078F3
:100A7000012826D12148006801280AD020480068B2
:100A800038B11F48001F006818B11D48001D0068DC
:100A9000B8B90A2001F06EFE002017490870174807
:100AA0000068012800D110BD1548006808B902206F
:100AB000F9E71348001F006808B90320F3E7042092
:100AC000F1E70E48006878B90D48006801280BD19D
:100AD0000B48001F0068012806D10948001D006866
:100AE000012801D104490870012C02D101200249DA
:100AF00008700020D7E700002400002000012142F8
:100B00000C01234208B50121102000F06BF8FF20F2
:100B1000ADF8000010208DF8030003208DF80200CE
:100B200069460448FFF7EDFEFF210248FFF774FF16
:100B300008BD00000010014000BFFEE77047000044
:100B400070B5002100230F22C47804B3154C24682B
:100B500004F4E064C4F5E064210AC1F10403CA406E
:100B6000447804FA03F184781440214309010E4CBF
:100B70000678A155047804F01F050124AC400578DF
:100B80006D11AD0005F1E025C5F8004109E00478DC
:100B900004F01F050124AC40044D0678761145F899
:100BA000264070BD0CED00E000E400E080E100E0D4
:100BB00002490143024A1160704700000000FA0533
:100BC0000CED00E029B1064AD2690243044BDA6118
:100BD00004E0034AD2698243014BDA6170470000A6
:100BE0000010024029B1064A92690243044B9A61FF
:100BF00004E0034A92698243014B9A617047000006
:100C00000010024030B500210022002400232D4DA9
:100C10006D6805F00C0121B1042905D0082923D104
:100C200005E0294D056022E0274D05601FE0254DB8
:100C30006D6805F47012234D6D6805F4803402254B
:100C400005EB92421CB9214D554305600BE01D4D4B
:100C50006D6805F400351DB11C4D5543056002E07B
:100C6000194D5543056002E0174D056000BF00BFF8
:100C7000144D6D6805F0F0010909154D6B5C0568B0
:100C8000DD4045600F4D6D6805F4E061090A104DC7
:100C90006B5C4568DD4085600A4D6D6805F4605108
:100CA000C90A0B4D6B5C4568DD40C560054D6D683C
:100CB00005F44041890B074D6B5CC568B5FBF3F546
:100CC000056130BD0010024000127A0000093D00AD
:100CD00010000020200000202DE9F04706460F46B6
:100CE0009046994600BFDFF8B4A09AF80000532858
:100CF00001D001F0BBF900BFEFF3118108462021BC
:100D000081F3118800BF00BF244D002400BF04EB15
:100D1000440205F1180101EBC201496801B903E081
:100D2000641C2969A142F2DC00BF2969A1422ADDC5
:100D300004EB440205F1180141F8326004EB44026F
:100D400001EBC2014F6004EB440205F1180101EB15
:100D5000C201C1F80880002204EB440305F1180128
:100D600001EBC3010A6104EB440305F1180101EB37
:100D7000C301CA6004EB440205F1180101EBC20192
:100D8000C1F8149001E04FF0FF34C1B281F3118833
:100D900000BF00BF2046BDE8F0870000744500207A
:100DA0002DE9F05F05460F469046994600BFDFF8F3
:100DB00064B09BF80000532801D001F057F900BF40
:100DC000DFF850A0032D1FD2EFF311810846202138
:100DD00081F3118800BF00BF05EB45020AF16001F5
:100DE00001EBC2043DB12760C4F80480C4F8089048
:100DF00000212161E1600A996161C1B281F311882A
:100E000000BF00BF002601E04FF0FF363046BDE8CE
:100E1000F09F0000744500202DE9F74F82B0834613
:100E2000174600BF2648009000980078532801D04C
:100E300001F01CF900BF0BEB4B012148603000EBC7
:100E4000C106DDF80C903569D6F80CA04FF000080B
:100E5000554517D9B068441BBC4201D2204600E07A
:100E60003846044670682844019022464846019955
:100E7000FFF7C8F9A044A1443F1B2544B068A8422D
:100E800000D10025AAEB0504BC4201D2204600E0B7
:100E9000384604465CB170682844019022464846B2
:100EA0000199FFF7AFF9A044A1443F1B2544B8F1D5
:100EB000000F00D03561404605B0BDE8F08F00005E
:100EC000744500202DE9F74F82B082461446DDF8C4
:100ED0000CB00AEB4A01224800EBC105D5F810908E
:100EE000EE68686830440190B14528D8A868801B36
:100EF000471EA7420AD3224659460198FFF782F9B6
:100F00003019E860012005B0BDE8F08F4F44A742DA
:100F100023D3A868A0EB0608424659460198FFF77C
:100F200071F9A4EB08043CB1686801900BEB08016F
:100F300022460198FFF766F9EC600120E3E7A9EB90
:100F40000600471EA74208D3224659460198FFF7DC
:100F500059F93019E8600120D5E70020D3E70000F7
:100F60008C45002010B5054B054A0649084600F09F
:100F700069F84FF0805000F051FC10BDA924000822
:100F80000438000800A24A0470B5EFF31180064649
:100F9000202080F3118800BF00BF284801F00EF91F
:100FA00005462C462046264A516805E0CAB242F062
:100FB000800200F8012BC9097F29F7D800F8011B2E
:100FC000044620461E4A916805E0CAB242F08002FB
:100FD00000F8012BC9097F29F7D800F8011B044646
:100FE0002046174A116905E0CAB242F0800200F8B3
:100FF000012BC9097F29F7D800F8011B04462046B8
:10100000002105E0CAB242F0800200F8012BC909B4
:101010007F29F7D800F8011B0446182221462846EC
:1010200001F0D0F8F0B280F3118800BF00BF04488F
:10103000406A10B10249486A804770BD544E002092
:101040002C4E0020F8B504460D4616461F460023D8
:101050004FF480620F4910A0FFF73EFE1049487020
:1010600008464078087600200090087E08230D4A44
:1010700009A1FFF795FE0020094908610A48406868
:10108000C8600846066244608560476200200870B8
:10109000F8BD00002C4A002053797356696577002B
:1010A0002C4E002094000020001000E070B5EFF3FB
:1010B00011800446202080F3118800BF00BF07483C
:1010C00001F07CF8054611222946284601F07AF8FD
:1010D000E0B280F3118800BF00BF70BD544E002005
:1010E0002DE9F0410446EFF311800746202080F3FC
:1010F000118800BF00BF114801F060F805462E4678
:101100000F480069241A3046214605E0CAB242F071
:10111000800200F8012BC9097F29F7D800F8011BCC
:10112000064608223146284601F04CF8F8B280F312
:10113000118800BF00BFBDE8F0810000544E0020C0
:101140002C4E00202DE9F0410446EFF311800746B4
:10115000202080F3118800BF00BF114801F02EF855
:1011600005462E460F480069241A3046214605E000
:10117000CAB242F0800200F8012BC9097F29F7D8D2
:1011800000F8011B064604223146284601F01AF8F1
:10119000F8B280F3118800BF00BFBDE8F081000005
:1011A000544E00202C4E00202DE9F0410446EFF370
:1011B00011800746202080F3118800BF00BF11482E
:1011C00000F0FCFF05462E460F480069241A304601
:1011D000214605E0CAB242F0800200F8012BC9099D
:1011E0007F29F7D800F8011B06460622314628461B
:1011F00000F0E8FFF8B280F3118800BF00BFBDE83F
:10120000F0810000544E00202C4E00202DE9F041CA
:1012100004460F46EFF311808046202080F31188AA
:1012200000BF00BF184800F0C9FF06463546174802
:101230000069241A2846214605E0CAB242F080021D
:1012400000F8012BC9097F29F7D800F8011B0546D2
:101250002846394605E0CAB242F0800200F8012B68
:10126000C9097F29F7D800F8011B0546072229463E
:10127000304600F0A7FF08F0FF0080F3118800BFA0
:1012800000BFBDE8F0810000544E00202C4E00202D
:101290002DE9F0410546EFF311800746202080F349
:1012A000118800BF00BF0F4800F088FF04462646A3
:1012B0003046294605E0CAB242F0800200F8012B10
:1012C000C9097F29F7D800F8011B06461C223146C0
:1012D000204600F077FFF8B280F3118800BF00BF0E
:1012E000BDE8F081544E00202DE9F04106460F463E
:1012F000EFF311808046202080F3118800BF00BFEB
:10130000164800F05BFF05462C462046314605E0B6
:10131000CAB242F0800200F8012BC9097F29F7D830
:1013200000F8011B04462046394605E0CAB242F0E7
:10133000800200F8012BC9097F29F7D800F8011BAA
:1013400004461C222146284600F03CFF08F0FF001E
:1013500080F3118800BF00BFBDE8F081544E00202B
:101360002DE9F041EFF311800746202080F311882A
:1013700000BF00BF114800F021FF04462546104879
:101380000088C0F308062846314605E0CAB242F09C
:10139000800200F8012BC9097F29F7D800F8011B4A
:1013A000054602222946204600F00CFFF8B280F3E1
:1013B000118800BF00BFBDE8F0810000544E00203E
:1013C00004ED00E070B5EFF311800446202080F3B7
:1013D000118800BF00BF074800F0F0FE0546032259
:1013E0002946284600F0EEFEE0B280F3118800BFE7
:1013F00000BF70BD544E002070B5EFF3118004465D
:10140000202080F3118800BF00BF074800F0D6FEFF
:10141000054612222946284600F0D4FEE0B280F3A9
:10142000118800BF00BF70BD544E002070B50C483D
:10143000006A78B10A48006A006858B10849096A28
:101440000868804704460D462A4621460D2000F0D4
:1014500039F804E0034841680C2000F005F870BD3D
:101460002C4E0020001000E02DE9F04105460E460C
:10147000EFF311808046202080F3118800BF00BF69
:101480000F4800F09BFE044627463846314605E0EB
:10149000CAB242F0800200F8012BC9097F29F7D8AF
:1014A00000F8011B07462A463946204600F08AFE0E
:1014B00008F0FF0080F3118800BF00BFBDE8F08195
:1014C000544E00202DE9F04706460F469046EFF3B4
:1014D00011808146202080F3118800BF00BF17488B
:1014E00000F06CFE05462C462046394605E0CAB29F
:1014F00042F0800200F8012BC9097F29F7D800F8D3
:10150000011B04462046414605E0CAB242F0800273
:1015100000F8012BC9097F29F7D800F8011B044600
:1015200032462146284600F04DFE09F0FF0080F3C8
:10153000118800BF00BFBDE8F0870000544E0020B6
:1015400070B50446EFF311800546202080F3118822
:1015500000BF00BF074800F031FE06462246314674
:10156000304600F02FFEE8B280F3118800BF00BFC4
:1015700070BD0000544E00202DE9F0470646294872
:10158000006800284CD027480468002703E024693D
:1015900004B902E07F1CB742F9D300BF002C3AD057
:1015A000EFF311808146202080F3118800BF00BF37
:1015B0001D4800F003FE804645462846314605E0BA
:1015C000CAB242F0800200F8012BC9097F29F7D87E
:1015D00000F8011B05462846A16805E0CAB242F0A2
:1015E000800200F8012BC9097F29F7D800F8011BF8
:1015F000054680222846216800F070FD0546162227
:101600002946404600F0DEFD09F0FF0080F3118816
:1016100000BF00BF00BF1CB1E06808B1E0688047B0
:10162000BDE8F0879C000020544E002010B507480C
:10163000006848B10548046800BFE06808B1E06888
:1016400080472469002CF8D110BD00009C000020C8
:1016500070B5EFF311800646202080F3118800BF9B
:1016600000BF0F4800F0AAFD0446254628460D4A53
:10167000117805E0CAB242F0800200F8012BC909D6
:101680007F29F7D800F8011B05461B222946204672
:1016900000F098FDF0B280F3118800BF00BF70BD6C
:1016A000544E0020A00000202DE9F0410446EFF345
:1016B00011800546202080F3118800BF00BF0B4831
:1016C00000F07CFD074680222146384600F006FDEA
:1016D00006460E223146384600F074FDE8B280F32B
:1016E000118800BF00BFBDE8F0810000544E00200B
:1016F0002DE9F0410446EFF311800746202080F3E6
:10170000118800BF00BF3B4800F058FD0646354633
:101710002846394B22681B69D11A05E0CAB242F04B
:10172000800200F8012BC9097F29F7D800F8011BB6
:1017300005462846A16805E0CAB242F0800200F8DA
:10174000012BC9097F29F7D800F8011B0546202283
:101750002846616800F0C2FC054609222946304649
:1017600000F030FD35462846234B22681B69D11A0C
:1017700005E0CAB242F0800200F8012BC9097F29B6
:10178000F7D800F8011B05462846E16805E0CAB213
:1017900042F0800200F8012BC9097F29F7D800F830
:1017A000011B05462846216905E0CAB242F08002C5
:1017B00000F8012BC9097F29F7D800F8011B05465D
:1017C0002846616905E0CAB242F0800200F8012BA8
:1017D000C9097F29F7D800F8011B054615222946BB
:1017E000304600F0EFFCF8B280F3118800BF00BF74
:1017F000BDE8F081544E00202C4E002010B5064864
:10180000006A38B10448006A406818B10249096AA0
:101810004868804710BD00002C4E00200149086137
:10182000704700002C4E0020014602480069081A4B
:10183000704700002C4E002070B501203A49087016
:10184000EFF311800446202080F3118800BF00BF11
:1018500048780A223549FFF735FBE0B280F311885A
:1018600000BF00BF0A20FFF76BFEEFF311800646B2
:10187000202080F3118800BF00BF2D4800F09EFC9F
:1018800005462C462046284A516805E0CAB242F077
:10189000800200F8012BC9097F29F7D800F8011B45
:1018A00004462046204A916805E0CAB242F0800210
:1018B00000F8012BC9097F29F7D800F8011B04465D
:1018C0002046194A116905E0CAB242F0800200F8C8
:1018D000012BC9097F29F7D800F8011B04462046CF
:1018E000002105E0CAB242F0800200F8012BC909CC
:1018F0007F29F7D800F8011B044618222146284604
:1019000000F060FCF0B280F3118800BF00BF064811
:10191000406A10B10449486A8047FFF787FDFFF726
:101920006DFFFFF795FE70BD2C4E0020E9370008D3
:10193000544E002070B5EFF311800546202080F34F
:10194000118800BF00BF0A4800F038FC044609486F
:10195000007838B10B222146204600F033FC0020ED
:1019600004490870E8B280F3118800BF00BF70BD61
:10197000544E00202C4E00202DE9F0410546EFF397
:1019800011800646202080F3118800BF00BF19484F
:1019900000F014FC074680222946384600F09EFBE2
:1019A00004462046012105E0CAB242F0800200F858
:1019B000012BC9097F29F7D800F8011B04462046EE
:1019C000002105E0CAB242F0800200F8012BC909EB
:1019D0007F29F7D800F8011B04461A222146384611
:1019E00000F0F0FBF0B280F3118800BF00BFBDE84B
:1019F000F0810000544E00202DE9F84305460C46C6
:101A000016461F46DDF82080052221A12046FEF75C
:101A10001DFC08B9BDE8F8831F480068082803D3F7
:101A20001E48FFF7A9FFF5E71B48006800EB8000A0
:101A30001B4941F820501848006800EB800001EB7A
:101A4000800044601448006800EB800001EB8000D7
:101A500086601148006800EB800001EB8000C760E1
:101A60000D48006800EB800001EB8000C0F810809A
:101A700009480068401C084908603B463246214638
:101A80002846CDF8008000F095F800BFC2E70000BE
:101A900049444C4500000000A40000200C38000818
:101AA000384F002070B505464048006800B970BD49
:101AB000002408E004EB84003D4951F82000A842CE
:101AC00000D104E0641C394800688442F2D300BFAE
:101AD00036480068401EA0420DD104EB8401344A10
:101AE00002EB81001421FEF7A6FB30480068401E7F
:101AF0002E49086057E02D480068844253D22B4895
:101B00000068401E00EB8000294951F8200004EBDA
:101B10008401274A42F8210024480068401E00EB57
:101B20008000114601EB8000406804EB840102EB69
:101B3000810148601D480068401E00EB800011468E
:101B400001EB8000806804EB840102EB8101886076
:101B500016480068401E00EB8000114601EB800033
:101B6000C06804EB840102EB8101C8600F48006883
:101B7000401E00EB8000114601EB8000006904EB81
:101B8000840102EB8101086108490968491E01EBE3
:101B9000810102EB81001421FEF74DFB0348006830
:101BA000401E0249086000BF81E70000A400002039
:101BB000384F00202DE9F04186B004460D46164608
:101BC0001F46DDF8308018216846FEF734FB00948C
:101BD000019502960397CDF810806846FFF788FDBF
:101BE00006B0BDE8F08110B500F002F810BD0000AD
:101BF0000CB50020019000903348006840F480301C
:101C00003149086000BF3048006800F4003000909F
:101C10000198401C0190009818B90198B0F5A06F88
:101C2000F1D12948006800F4003010B10120009083
:101C300001E0002000900098012843D1234800686B
:101C400040F01000214908600846006820F00300B9
:101C500008600846006840F0020008601A484068C2
:101C6000194948600846406848600846406840F4A2
:101C7000806048600846406820F47C104860084650
:101C8000406840F4E81048600846006840F0807002
:101C9000086000BF0C48006800F000700028F9D010
:101CA0000948406820F0030007494860084640683A
:101CB00040F00200486000BF0348406800F00C009C
:101CC0000828F9D10CBD000000100240002002409D
:101CD000042808D14FF0E021096941F004014FF0D8
:101CE000E022116107E04FF0E021096921F00401D1
:101CF0004FF0E0221161704710B501F0A5FB0128FB
:101D000001D001F061FB10BD10B504466FF0040076
:101D1000FFF7DEFFE11704EB5171C1F3C701074A7A
:101D200011701046007800EB4001C1EBC0104FF677
:101D3000FF7101EAC0000249088010BD26000020A2
:101D40002800002010B51348006840F00100114938
:101D5000086008464068104908400E494860084637
:101D600000680E4908400B4908600846006820F4E6
:101D7000802008600846406820F4FE0048604FF468
:101D80001F008860FFF72FFF4FF0006004490860D4
:101D900010BD0000001002400000FFF8FFFFF6FE3B
:101DA00008ED00E010B540F225510C4800F096F81F
:101DB00070B10A4800F04EF9C4B22146074800F05D
:101DC0004EF900BF4021054800F07BF80128F9D109
:101DD0004021024800F060F810BD000000380140CA
:101DE00010B586B0044601210420FEF7FBFE012158
:101DF0008803FEF7F7FE01210846FEF7F3FE4FF4D5
:101E00000070ADF8140003208DF8160018208DF82E
:101E1000170005A91E48FEF774FD4FF48060ADF869
:101E2000140004208DF8170005A91948FEF769FD74
:101E300001940020ADF80800ADF80A00ADF80C00E0
:101E4000ADF810000C20ADF80E0001A9114800F00B
:101E500095F801210F4800F028F840210D4800F0C6
:101E60001BF8012240F225510A4800F061F82520B4
:101E70008DF8000003208DF801008DF8020001208C
:101E80008DF803006846FEF75BFE06B010BD00004B
:101E9000000801400038014001F40072B2F5007FF3
:101EA00000D100BFCA430280704721B1828942F449
:101EB0000052828104E082894DF6FF731A408281CC
:101EC000704702460020B1F5007F00D100BF1388A3
:101ED0000B400BB1012000E00020704770B50246B6
:101EE000002400230025002040F66A16B14200D1EC
:101EF00000BFC1F3421501F01F03012606FA03F3E8
:101F0000012D02D19689334006E0022D02D1168AB6
:101F1000334001E0968A33400C12012606FA04F49D
:101F20001688344013B10CB1012000E0002070BDD0
:101F3000F0B50346002400260025002040F66A176D
:101F4000B94200D100BF1846C1F3421401F01F0688
:101F5000012707FA06F5012C01D10C3004E0022C10
:101F600001D1103000E014301AB107682F43076028
:101F700002E00768AF430760F0BD00002DE9F047BD
:101F800086B005460E460024A24600BFA1460027A3
:101F9000B08900B100BF2F462C8A4CF6FF70044078
:101FA000F08804432C82AC894EF6F3100440B088CC
:101FB00031890843718908430443AC81AC8A4FF6E8
:101FC000FF400440B0890443AC8201A8FEF71AFE2A
:101FD0001F48874202D1DDF810A001E0DDF80CA017
:101FE000A88900F4004040B10AEBCA0000EB0A10D7
:101FF00031684900B0FBF1F807E00AEBCA0000EBDA
:102000000A1031688900B0FBF1F86420B8FBF0F0E9
:1020100004012009642101FB1089A88900F4004013
:1020200040B1322000EBC900B0FBF1F000F0070036
:10203000044308E0322000EB09106421B0FBF1F00A
:1020400000F00F0004432C8106B0BDE8F0870000CB
:102050000038014001468888C0F308007047C1F38A
:1020600008028280704700BFFEE7000070B5144C84
:10207000A8212046FEF7DFF803202061606111A04F
:10208000A0611349E1614FF4806121620021A162E6
:102090006162E1620BA020660E4961661021A166B3
:1020A00000212167E1666167002505E0C5F10F00A9
:1020B0000949085C60556D1C102DF7D370BD0000F8
:1020C000744500205465726D696E616C00000000FB
:1020D0001C4600201C4A0020D837000870B519B9EA
:1020E000002500F8015B13E00C460346401C802AE3
:1020F00000D9802203E011F8015B00F8015B151E96
:10210000A2F1010202D00D78002DF4D10D1B1D703B
:1021100070BD000038B52849087E01226946FEF7E7
:102120007BFE0446002C45D09DF8000005281ED0FB
:1021300008DC01280FD0022810D0032811D0042871
:102140002CD111E0062815D0072816D07F2824D0DE
:10215000802823D114E0FFF76FFB2AE0FFF7EAFBAA
:1021600027E0FFF763F924E0FFF748FB21E0FEF7E3
:102170000BFF1EE0FFF76CFA1BE0FFF757FA18E0C1
:102180000D49087E01226946FEF746FE04461CB151
:102190009DF80000FFF7F0F90BE00AE09DF8000061
:1021A000802805DB0449087E01226946FEF734FEDB
:1021B00000BF00BF38BD00002C4E00200146C81DE6
:1021C000704700002DE9F04705460F461446724857
:1021D0000078012800D10FE06F48007800B9BCE01A
:1021E0006D480078022806D100F0DCF86A480078D3
:1021F000012800D0B1E000BF202C06D26648C0699B
:102200000121A140084000B1A7E0182C03D2681EAC
:102210000546047078E07E1B7F2E0BD9C6F3C711EC
:10222000681E05460170F0B240F08001681E054648
:10223000017002E0681E054606707F2C03D2681EFE
:102240000546047060E0B4F5804F0BD2C4F3C711AB
:10225000681E05460170E0B240F08001681E054628
:10226000017051E0B4F5001F12D2C4F38731681E2B
:1022700005460170802040EAD410C1B2681E0546B0
:102280000170E0B240F08001681E054601703BE03D
:10229000B4F1805F19D2C4F34751681E054601703E
:1022A000802040EA9430C1B2681E0546017080204B
:1022B00040EAD410C1B2681E05460170E0B240F099
:1022C0008001681E054601701EE0210F681E05464C
:1022D0000170802040EA5450C1B2681E054601706A
:1022E000802040EA9430C1B2681E0546017080200B
:1022F00040EAD410C1B2681E05460170E0B240F059
:102300008001681E054601702448D0F804802248E8
:10231000C068A8EB000A3846514605E0CAB242F050
:10232000800200F8012BC9097F29F7D800F8011BAA
:1023300007467A1B184948782946FEF7C3FD8146AF
:10234000B9F1000F03D01448C0F80C8004E0124823
:102350000078401C1049087000BF0F48007E00EB59
:1023600040010F4800EBC100C1680B48007E00EB44
:1023700040020B4800EBC2000069081A0AD0064868
:10238000807838B9012004498870FFF7C3FE002027
:1023900001498870BDE8F0872C4E0020001000E055
:1023A000D4450020FEB501208DF800000DF1010696
:1023B00030461C4A516905E0CAB242F0800200F87A
:1023C000012BC9097F29F7D800F8011B06461648DA
:1023D00044681448C068271A3046394605E0CAB236
:1023E00042F0800200F8012BC9097F29F7D800F8D4
:1023F000011B06466946721A0A4948786946FEF783
:1024000061FD054635B10748C4600078401E0549A6
:10241000087004E003484069401C024948612846AE
:10242000FEBD00002C4E0020001000E00FB4054B54
:1024300010B503A9044A029800F08AF810BC5DF8B0
:1024400014FB0000C1270008A800002002E008C813
:10245000121F08C1002AFAD170477047002001E01E
:1024600001C1121F002AFBD170472DE9F04101F094
:1024700001F800250446012100202246A2FB016745
:1024800005FB017104FB001534464FF47A720021FC
:102490002046A0FB026705FB027204FB01253446BF
:1024A00020462946BDE8F08110B503A0FFF7FCF8EF
:1024B0000EA0FFF7F9F810BD4E3D46726565525407
:1024C0004F532044656D6F204170706C6963617477
:1024D000696F6E2C443D436F727465782D4D342CBA
:1024E0004F3D4672656552544F53000049233135C4
:1024F0003D5379735469636B00000000F8B5002404
:102500001DE004EB8400104901EB8000006904EB3E
:1025100084050E4606EB85050090EB6804EB840508
:1025200006EB8505AA6804EB840506EB850569685A
:1025300004EB840556F82500FFF73CFB641C0348B8
:1025400000688442DDD3F8BD384F0020A40000208D
:102550002DE9F84F9946924688460546002706E041
:1025600025280AD051464A4690476D1C7F1C287882
:102570000028F5D13846BDE8F88F002315F8011F73
:1025800018462E2915D115F8011F04232A290DD02C
:102590006FF02F022978A1F13004092C09D800EB43
:1025A000800002EB400008446D1CF3E758F8040B70
:1025B0006D1C2A78002ADDD0632A07D0732A0FD039
:1025C000104651464A4690477F1C2AE018F8042BD3
:1025D0008DF8002000218DF801106E46012103E0E6
:1025E00058F8046B4FF0FF315A074FF0000401D444
:1025F00009E0641C84420BDA8C42FADB325D002A6B
:10260000F7D105E0641C8C42FCDB305D0028F9D179
:10261000274404E016F8010B51464A469047641ED1
:10262000F8D26D1CA3E7000088B04FF0000800242A
:10263000002600200423082207210090FDF746FF12
:1026400060E00020FEF710FA0546012D12D106B910
:1026500000E00020064604230822072100200096FF
:10266000FDF734FF1EB928A0FFF7E0FE02E02AA024
:10267000FFF7DCFE022D19D1002407E006A804555F
:10268000005D303004A90855601CC4B2082CF5DB8D
:10269000082106A8FEF71AF807461FB122A0FFF787
:1026A000C5FE03E004A924A0FFF7C0FE02A8FDF7C1
:1026B000EDFF074677B1002406E002A8005D303048
:1026C00004A90855601CC4B2BC42F6DB04A91EA0D4
:1026D000FFF7ACFE08F1010000F0FF08142098FBA2
:1026E000F0F100FB118038B91B48006808B90120DF
:1026F00000E000201849086018A0FFF797FEC820E6
:1027000000F00CFD9DE700004E6F726D616C204D76
:102710006F64650D0A0000004C6F6F704261636B5F
:10272000204D6F64650D0A0053656E642046616933
:102730006C6564210D0A0000B7A2CBCDCAFDBEDDD9
:10274000A3BA25730D0A0000BDD3CAD5CAFDBEDDEC
:10275000A3BA25730D0A0000880122420A204341D2
:102760004E205461736B2052756E6E696E67200A3D
:10277000000000000146114A12884A434FF0E0234E
:102780005A6100229A611A46126942F001021A61E6
:1027900000BF4FF0E022106900F001021AB100F40E
:1027A0008032002AF5D04FF0E022126922F00102B7
:1027B0004FF0E0231A6100229A6170472800002040
:1027C00070B504460D46E1B20548FFF748FC00BF6E
:1027D00080210348FFF775FB0028F9D0204670BD23
:1027E000003801400CE007480068C0430649C1F8C2
:1027F000800106A0FFF71AFE4FF4FA7000F08EFC7D
:10280000F1E7000080012242000022420A205461C8
:10281000736B312052756E6E696E670A000000009E
:102820000CE007480068C0430649C1F8840106A0CF
:10283000FFF7FCFD4FF47A7000F070FCF1E7000048
:1028400084012242000022420A205461736B32202C
:1028500052756E6E696E670A000000001CB5482054
:10286000FFF752FA4FF4A060FEF7A2F9FEF74AF91B
:102870004FF41650FFF7B4FAFEF7D2F807480121DB
:1028800000238022CDE9001005A1084800F0BCFD1E
:10289000FEF768FB00F0ECFC00201CBD00000020EF
:1028A00073746172745F7461736B00000D2F0008A4
:1028B0002DE9F04705460E462E4807682E48D0F809
:1028C00000802E48D0F800902D480068001D00F0D0
:1028D00067FB50B92A48006890F82C100120884006
:1028E00028490968814327480160681CE0B9DEB1C6
:1028F00000BF2549486822490968886020498268E4
:102900000968CA601E490968091D826851601C492E
:102910000968091D81601C4A194909684A61114604
:102920000968491C116022E07C1915480068446060
:10293000BC420BD2042112480068FEF767FC104825
:102940000168091D484600F061FB10E004210C48B5
:102950000068FEF75BFC0A480168091D404600F06C
:1029600055FB0A480068844201D208480460BDE86B
:10297000F0870000400000203000002034000020DC
:102980002C00002044000020600100205C0000209A
:1029900038B5044600F06EFB3B480068401C3A49DD
:1029A00008603A48006840B9384804600846006842
:1029B00001280DD100F08CF90AE03548006838B9DB
:1029C00032480068C06AE16A884201D82F48046032
:1029D00030480068401C2F4908606CB12046FEF763
:1029E0007FFB216B2068401A009004F134012046DF
:1029F000D4E90B23FFF700F800BF2046FEF7D4FB15
:102A000094F82C1001208840234909680843224982
:102A1000086000BFE16A01EB8101204A02EB8101FD
:102A20004868A0608268E260211D82685160816010
:102A3000E16A01EB8101194A02EB81026261E16AFC
:102A400001EB8101154A52F82110491CE26A02EBA0
:102A50008202124B43F8221000BF00BF00F01CFBA3
:102A60000B48006878B100BF08480068C06AE16A96
:102A7000884207D24FF0805009490860BFF34F8F5A
:102A8000BFF36F8F00BF38BD3C0000202C0000203A
:102A9000480000205800002044000020AC00002026
:102AA00004ED00E010B516E000F0E4FA0C48C06850
:102AB000C468201D00F074FA0A480068401E0949E5
:102AC000086009480068401E0749086000F0E4FA01
:102AD000204600F06CF8044800680028E4D110BDDE
:102AE0004C0100203C00002038000020F0B587B0E9
:102AF00001260027002408E012A0005D03A9085564
:102B000003A8005D00B902E0641C102CF4DB00BFD8
:102B1000002510E00D4F0E4800EB850000210B460C
:102B20008022CDE9001003A9384600F06DFC06466E
:102B300006B902E06D1C012DECDB00BF304607B08A
:102B4000F0BD000049444C45000000002D2C000859
:102B5000600000202DE9FF5F07468846164699462B
:102B6000DDE90EABB00000F03FF9054675B14C2031
:102B700000F03AF904462CB14C212046FDF75BFBEE
:102B8000256304E0284600F097FA00E0002454B1E1
:102B900000204B4632464146CDE900ABCDE902402C
:102BA000384600F057F8204604B0BDE8F09F10B555
:102BB0000446206B00F080FA204600F07DFA10BD3C
:102BC00030B54FF48843144800F007042CB1C01D01
:102BD00020F00700104C041B1B1B104C206000242D
:102BE0000E4D6C60C218083A22F007020C4C2260AD
:102BF00000240B4D2D686C60094D2D682C6001463A
:102C0000541A4C60064C24680C60064D4C682C60CD
:102C1000054D4C682C6030BD740100206C00002014
:102C2000740000207C0000207800002000BFFFF727
:102C300039FF064800680128F9D94FF0805004494F
:102C40000860BFF34F8FBFF36F8FF0E7AC00002039
:102C500004ED00E02DE9FF5F80460E469146DDE978
:102C60000E7A109CA9F10100216B01EB800B2BF077
:102C7000070B7EB1002507E0715D04F1340041557A
:102C8000705D00B902E06D1C102DF5D300BF00216E
:102C900043200155052F00D30427E762201D00F0D3
:102CA000ACF904F1180000F0A8F92461C7F105009F
:102CB000A061646241465846039A00F015F920600D
:102CC000BAF1000F01D0CAF80040BDE8FF9F000034
:102CD00010B5002407E004EB84010F4A02EB8100E9
:102CE00000F078F9641C052CF5D30C4800F072F95B
:102CF0000B4800F06FF90B4800F06CF90A4800F03F
:102D000069F90A4800F066F904480949086004486E
:102D10000849086010BD0000AC0000201001002030
:102D200024010020380100204C0100206001002017
:102D3000300000203400002010B50146164800E0A5
:102D4000006803688B42FBD30246436813448B42FE
:102D500004D143684C682344436001460A464B68EB
:102D600013440468A34211D10C4C03682468A342A5
:102D700008D04B680468646823444B6003681B6890
:102D80000B6005E0054B1B680B6001E003680B60FE
:102D9000884200D0016010BD6C000020740000204B
:102DA00009480068006808B9012000E0002020B14F
:102DB0004FF0FF300549086005E003480068C0682F
:102DC0000068024908607047300000205C00002065
:102DD00000BFBF2080F31188BFF34F8FBFF36F8F09
:102DE00000BF00BFFEE700002DE9F04704464FF0AA
:102DF0000009DCB114F1090F01D9012000E0002025
:102E000098B9083404F0070080B104F00700C0F15D
:102E10000808C8F1FF30A04201D2012000E00020E4
:102E200008B9444402E0002400E0002400F05EFA07
:102E30002848006808B9FFF7C3FE012000EBE470E2
:102E4000002841D0002C3FD02348006884423BD862
:102E5000224E3046056801E02E462D686868A04283
:102E600002D228680028F7D11A48006885422BD082
:102E7000306800F10809286830606868001B102875
:102E800007D92F196868001B78606C60306838605B
:102E90003760114968680968081A0F4908600846D0
:102EA00000680F490968884203D20B4800680C4942
:102EB0000860686840F000406860002028600948A9
:102EC0000068401C0749086000F0B8FB4846BDE8B0
:102ED000F087000074000020780000206C000020C3
:102EE0007C00002080000020001F4FF080730360F2
:102EF000001F21F001030360001F034B036014381F
:102F00000260203870470000D12D00081CB504462F
:102F100000F0B0F81248032100233222CDE900105E
:102F200010A1134800F070FA124803210023322246
:102F3000CDE9001010A1134800F066FA12480221F2
:102F40000023FA22CDE9001010A1134800F05CFA2A
:102F50001248006800F0FEF800F09EF81CBD00006A
:102F6000040000206C6564315F7461736B000000C5
:102F7000E5270008080000206C6564325F74617307
:102F80006B000000212800080C00002063616E5FC8
:102F90007461736B00000000292600080000002007
:102FA00070B504462569D4E901108860D4E90101AF
:102FB00048606868A04201D1A06868600020206174
:102FC0002868401E286040F21D102968FEF78CF921
:102FD000286870BD10B5044604F1080060604FF029
:102FE000FF30A06004F10800E06020610020206054
:102FF00040F21910FEF74CF910BD10B50446002040
:1030000020614FF48D70FEF743F910BD2DE9F041BA
:1030100006460C462768781C08B9356907E006F1B2
:10302000080500E06D6868680068B842FAD9686809
:10303000606060688460A5606C6026613068401CD8
:1030400030604FF48E70FEF723F9BDE8F08170B563
:1030500005460C466E686660B068A060B068446063
:10306000B46025612868401C286040F21B10FEF700
:103070000FF970BD00BFBF2080F31188BFF34F8FE1
:10308000BFF36F8F00BF03480068401C0149086010
:10309000704700008800002006480068401E05496F
:1030A00008600846006820B9002080F3118800BF3E
:1030B00000BF70478800002070B506463546E6B16F
:1030C000083D2C466068C00FB8B12068A8B9606898
:1030D00020F00040606000F009F908496068096864
:1030E0000844064908602046FFF726FE04480068A9
:1030F000401C0349086000F0A1FA70BD7800002070
:103100008400002000204FF0E0210861886102481F
:1031100048610720086170473F19010070B50446F7
:10312000002544B100F0E2F800212046FFF7C0FB83
:1031300000F084FA05463DB94FF08050044908601C
:10314000BFF34F8FBFF36F8FC520FEF7A1F870BD9F
:1031500004ED00E02DE9F04105460026FFF78AFF67
:1031600015B93A48006800E028460446201DFFF7DC
:1031700017FF88B900BFE06A00EB8000344951F8BE
:10318000200040B994F82C1001208840314909688A
:1031900081433048016000BFA06A18B104F11800F3
:1031A000FFF7FEFE2C480068401C2B4908602748AA
:1031B0000068844201D1012000E000200746274832
:1031C0000068B0B1AFB1211D2548FFF740FF254889
:1031D0000068401C234908602046FEF725FB804616
:1031E0004146C320FEF740F92046FEF75BFC01266E
:1031F00011E01D480068401E1B4908602046FEF78C
:1032000013FB80464146C320FEF72EF92046FEF709
:1032100049FCFFF7C5FDFFF73FFF012E02D0204616
:10322000FFF7C5FC0D48006858B1084800688442A3
:1032300007D14FF080500D490860BFF34F8FBFF3A7
:103240006F8FC320FEF724F8BDE8F0812C0000202A
:10325000AC0000204400002058000020480000205E
:103260004C010020380000203C00002004ED00E06C
:1032700010B5FFF73BFC0446012C23D100BFBF2053
:1032800080F31188BFF34F8FBFF36F8F00BF4FF0F4
:10329000FF300F49086001200E49086000200E49E8
:1032A000086005220DA10F4800683430FCF7CEFFFE
:1032B00020B10C480068FDF745FF01E0FDF7F6FE80
:1032C00000F068F808480068CD20FDF7E1FF10BD68
:1032D0005C000020480000204000002049444C458C
:1032E000000000002C0000206400002010B50448FD
:1032F0000068401C02490860CF20FDF7C9FF10BDDF
:103300006800002010B51C48006818B101201B4956
:10331000086030E000201949086000BF18480068C4
:10332000B0FA80F0C0F11F0100BF01EB8102154B24
:1033300003EB820042685268426000F10802436871
:10334000934201D1C26842604268D2680E4B1A6053
:1033500000BF00BF05220DA1184600683430FCF7FD
:1033600075FF20B108480068FDF7ECFE01E0FDF7AD
:103370009DFE0548006810BD680000205000002038
:1033800044000020AC0000202C00002049444C45A3
:103390000000000010B50A48006840F47F000849AA
:1033A00008600846006840F07F400860FFF7AAFE0A
:1033B000002004490860FCF7D9FE002010BD000081
:1033C00020ED00E08800002010B500BFBF2080F392
:1033D0001188BFF34F8FBFF36F8F00BFFDF7C0FFA2
:1033E00000F054F830B1FEF707F84FF0805005496F
:1033F000086001E0FDF7E6FF00BF002080F31188C0
:1034000000BF10BD04ED00E02DE9FC5F06460F464D
:1034100090469946DDE90CAB4B464246394630466C
:10342000CDE900ABFFF796FB054625B12846FFF72F
:10343000AFFA012401E04FF0FF342146C220FDF72E
:1034400053FF2046BDE8FC9F10B50848006808B946
:10345000012405E00648006808B9022400E00024C1
:103460002146F520FDF740FF204610BD4800002012
:103470006800002070B50025034804682146D2206A
:10348000FDF732FF204670BD400000202DE9F041DD
:1034900000275F48006800287DD15E480068451C11
:1034A0005C48056095B900BF5B48D0F800805B4878
:1034B0000068594908605948C0F8008058480068B9
:1034C000401C57490860FFF76BFC00BF5548006877
:1034D00085427DD300BF50480068006808B90120CC
:1034E00000E0002020B14FF0FF304E49086072E04C
:1034F00049480068C068C4686668B54202D2494855
:10350000066068E000BF6069D4E902128A60D4E90D
:1035100002214A60211D42688A4201D1E16841606E
:10352000002262610168491E016000BFA06AA0B16B
:1035300000BFA06AD4E907128A60D4E907214A6073
:1035400004F1180142688A4201D1216A41600022D7
:10355000A2620168491E016000BF00BF2046FDF75E
:1035600023FE94F82C10012088402F490968084355
:103570002D49086000BFE16A01EB81012B4A02EB93
:1035800081014868A0608268E260211D8268516004
:103590008160E16A00E02FE001EB8101234A02EB48
:1035A00081026261E16A01EB8101204A52F8211037
:1035B000491CE26A02EB82021C4B43F8221000BF56
:1035C00000BF1B49E06A0968C96A884283D900E0E4
:1035D00002E001277FE700BF15480068C06A00EBE2
:1035E0008000124951F82000012800D90127114814
:1035F000006800B1012704E00F480068401C0E4934
:1036000008603946DB20FDF76FFE3846BDE8F081E3
:10361000680000204000002030000020340000201E
:10362000540000205C00002044000020AC0000207A
:103630002C000020500000204C0000202DE9F0411B
:1036400000240027FFF716FD002556480068401E9D
:103650005449086008460068002871D15248006843
:1036600000286DD067E05148C068C46800BFA06AF8
:10367000D4E907128A60D4E907214A6004F11801ED
:1036800042688A4201D1216A41600022A262016837
:10369000491E016000BF00BF6069D4E902128A6060
:1036A000D4E902214A60211D42688A4201D1E168C1
:1036B0004160002262610168491E016000BF00BFD5
:1036C0002046FDF771FD94F82C1001208840384900
:1036D000096808433649086000BFE16A01EB8101CF
:1036E000344A02EB81014868A0608268E260211DD3
:1036F000826851608160E16A01EB81012D4A02EB31
:1037000081026261E16A01EB81012A4A52F82110CB
:10371000491CE26A02EB8202264B43F8221000BFEA
:1037200000BF2549E06A0968C96A884203D90120B7
:10373000224941F825001D48006810B9012001E028
:1037400026E0002000288ED00CB1FFF729FB1C4892
:1037500006686EB100BFFFF799FE18B10120174946
:1037600041F82500761E002EF5D10020144908608E
:10377000124850F8250058B1012700BF0E480068D4
:10378000380710490860BFF34F8FBFF36F8F00BF3A
:10379000FFF782FC3946D020FDF7A6FD3846BDE88C
:1037A000F0810000680000203C000020380100206B
:1037B00044000020AC0000202C000020500000201D
:1037C0004C00002004ED00E0303132333435363720
:1037D000383941424344454600000000000054543B
:1037E00052205245474745530000000000000000AA
:1037F00000000030313233343536373839414243F6
:10380000444546006B240008FD24000853595354D6
:10381000454D564945573A20436F756C64206E6F8D
:1038200074207265636F7264207461736B20696EBB
:10383000666F726D6174696F6E2E204D6178696D6F
:10384000756D206E756D626572206F662074617390
:103850006B7320726561636865642E007C380008B4
:1038600000000020AC0000004C24000828390008AB
:10387000AC0000202C5300005C2400080000000075
:103880000000000000000000000000000000000038
:1038900001020304010203040607080902040608E2
:1038A0000100000000000000000000000000000017
:1038B0000000000000000000000000000000000008
:1038C00000000000000000000000000000000000F8
:1038D00000000000000000000000000000000000E8
:1038E00004000000000000000000000000000000D4
:1038F00000000000000000000000000000000000C8
:1039000000000000AAAAAAAA00000000000000000F
:1039100000000000000000000000000000000000A7
:0839200000000000000000009F
:0400000508000131BD
:00000001FF
